:020000040000FA
:02000000002FCF
:06000200000000000000F8
:080008008A017F1809288831E4
:0A00100004287F1D00299031042808
:06001A00000000000000E0
:1000200000000000000000000000000000000000D0
:1000300000000000000000000000000000000000C0
:1000400000000000000000000000000000000000B0
:1000500000000000000000000000000000000000A0
:100060000000000000000000000000000000000090
:100070000000000000000000000000000000000080
:100080000000000000000000000000000000000070
:100090000000000000000000000000000000000060
:1000A0000000000000000000000000000000000050
:1000B0000000000000000000000000000000000040
:1000C0000000000000000000000000000000000030
:1000D0000000000000000000000000000000000020
:1000E0000000000000000000000000000000000010
:1000F0000000000000000000000000000000000000
:1001000000000000000000000000000000000000EF
:1001100000000000000000000000000000000000DF
:1001200000000000000000000000000000000000CF
:1001300000000000000000000000000000000000BF
:1001400000000000000000000000000000000000AF
:10015000000000000000000000000000000000009F
:10016000000000000000000000000000000000008F
:10017000000000000000000000000000000000007F
:10018000000000000000000000000000000000006F
:10019000000000000000000000000000000000005F
:1001A000000000000000000000000000000000004F
:1001B000000000000000000000000000000000003F
:1001C000000000000000000000000000000000002F
:1001D000000000000000000000000000000000001F
:1001E000000000000000000000000000000000000F
:1001F00000000000000000000000000000000000FF
:1002000083018801911A05298A2A23001908F5001B
:100210008801F030750203193D29F7307502031982
:10022000862A7508F839F83C0319A62AF51B8A2A8C
:100230007F1CA62AFF184129F20A7208F600F60B65
:10024000262900307502031D8A2AA62AF60B2D29BD
:1002500001307502031D8A2AA62AF60B34295D3067
:100260007502031D8A2AA62AF60B8A2A0730750210
:10027000031D8A2AFF14F201A62AF2017F14FF103F
:10028000A62AF20A7208F600F60B53297E30750290
:10029000031958297F30750203195B297508031D5E
:1002A0008A2AF203A62AFF1AC6297F1A5D298A2AFA
:1002B000FF16F701A62A7F16A62AF60B62297508F3
:1002C000F800A62AF60B6A297808803EF507F50F94
:1002D0008A2AA62AF60B6F297508FA00A62AF60BB9
:1002E00077297A08803EF507F50F8A2AA62AF60BA9
:1002F0007C297508FB00A62AF60B8C297B08803E1A
:10030000F507F50F8A2A7A18F8177B18FA170310E1
:10031000FA0CFB18FA17A62AF60B91297508FB00B0
:10032000A62AF60B8A2A7B08803EF507F50F8A2A53
:100330008B138B1B9829230095189C297B0893000D
:10034000003091009513151555309600AA3096008F
:1003500095149518A9297A089300910A1515553016
:100360009600AA30960095149518B4297808930041
:10037000910A9513151555309600AA3096009514DC
:100380009518C0298801CC308E00C529F60BCB29E1
:100390007508FA00A62AF60BD3297A08803EF507DD
:1003A000F50F8A2AA62AF60BD8297508FB00A62A7B
:1003B000F60BE4297B08803EF507F50F8A2A7B18A7
:1003C000FA170310FB0CA62AF60BE9297508F900A9
:1003D000A62AF60BF1297908803EF507F50F8A2A3F
:1003E000A62AF60BF6297508F800A62AF60B8A2A23
:1003F0007808803EF507F50F8A2A7818F917031058
:10040000F80C7808031D052A332A7808013C031DDF
:100410000C2A79080319332A78083039103C031D57
:10042000222AF7181B2A7718182A0930F806222AD8
:100430000230F806222A7718202A0E30F806222ADF
:100440000530F806F7182C2A7718292A1B30F906E8
:10045000332A2130F906332A7718312A0730F90672
:10046000332A3230F9068501A030840077088407EA
:10047000840779088000840A78088000F70A203011
:1004800077020319462A0430F202A62A8B138B1B2B
:10049000462A23007B0892007A08910095171515CB
:1004A000151655309600AA309600951400000000ED
:1004B000151215118501A03084007B0892007A087E
:1004C000910015152030F5001200930012009400E1
:1004D00095161108073A07390319951255309600F9
:1004E000AA309600951400000000910AF50B642ACA
:1004F00015112300190819082000911223001D125C
:100500001D1688018B17FF12F201A62AFF107F101B
:100510008801882AFF107F108801CC308E00A0014E
:10052000A2010000000000000000A00B912AA20B15
:10053000912AC4308E00A001A2010000000000003A
:0E0540000000A00B9D2AA20B9D2A8D2A090007
:02054E000000AB
:10055000000000000000000000000000000000009B
:10056000000000000000000000000000000000008B
:10057000000000000000000000000000000000007B
:10058000000000000000000000000000000000006B
:100E000021008730950088018C018D01CC308E0047
:100E10008F01900123008C018D018F019001210031
:100E2000F030990021007F308C00FF308D00E030E1
:100E30008E00FF308F00F830900023003F309B0081
:100E400026309E0090309D00210091168801FF0100
:100E50008C1E2D2F402788310028C4308E007F142F
:100E6000C0308B008C1E322F8B13000000007F15CA
:060E70004027903100282C
:0A0E76000000000000000000000072
:100E8000F501F60123009101920195171514000058
:100E900000001308F5071408F63D910F462F920A3B
:100EA000921E462F01309100951315141308F80077
:100EB000910A15141308F70003147708F53D780814
:100EC000F63D7608031D692F7508031D692F8801FB
:100ED000080088010C308E00A001A1010830A2009A
:100EE0000000A00B702FA10B702FA20B702F0430ED
:100EF0008E00A001A1010830A2000000A00B7D2FF0
:0C0F0000A10B7D2FA20B7D2F6A2F080093
:040F0C0000000000E1
:100F100000000000000000000000000000000000D1
:100F200000000000000000000000000000000000C1
:100F300000000000000000000000000000000000B1
:100F400000000000000000000000000000000000A1
:100F50000000000000000000000000000000000091
:100F60000000000000000000000000000000000081
:100F70000000000000000000000000000000000071
:100F80000000000000000000000000000000000061
:100F90000000000000000000000000000000000051
:100FA0000000000000000000000000000000000041
:100FB0000000000000000000000000000000000031
:100FC0000000000000000000000000000000000021
:100FD0000000000000000000000000000000000011
:100FE0000000000000000000000000000000000001
:100FF00000000000000000000000000000000000F1
:02100000002CC2
:06100200000000000000E8
:081008008801911A0F280B1951
:101010000A2809008B120B1108308E0009002300EA
:1010200019089A00FE008801FE1F2C287E09F83955
:10103000031909007408FE02031928281030FE0263
:1010400003192428FC0109000230FC00FF100900EC
:101050000130FC00FF100900FF1C3428FF107C1831
:101060003E28FC184B28090024087E027F39F10035
:10107000FF148E0195010B118B1609007108840075
:10108000BD30850000088600850A00088700850AB3
:10109000000981050900FE0803193E287108840033
:1010A000BD30850000088600850A00088700850A93
:0610B000000881040900A4
:0A10B6000000000000000000000030
:1010C0000000000000000000000000000000000020
:1010D0000000000000000000000000000000000010
:1010E0000000000000000000000000000000000000
:10180000FF010C1E7F162300033091009513151461
:101810001308F500910A15141308F600910A15141F
:101820001308F70088017508803EF400103EF300AD
:101830007608A4008401223085008001840F1D2CCD
:10184000850A8001840F212C85038E019B249B2413
:101850009B24FF308F008E1A8F0108308E002300EA
:101860001908190823001D127F1E1D168801230068
:10187000190819088801C0308B007F1A552C8E1A60
:101880004B2C0D08840005100C18051408140009D1
:101890008F008801412C0D09840005100C1C0514D3
:1018A000081400098F0088014B2CBC24F80B552C20
:1018B000E724770800060319552CF8000325811B3F
:1018C000552C781C662C0130F800862CF81C6B2CEB
:1018D0000230F800862C781D702C0430F800862C1D
:1018E000F81D752C0830F800862C781E7A2C1030E4
:1018F000F800862CF81E7F2C2030F800862C781FEC
:10190000842C4030F800862C8030F8008E01950140
:101910000B118B167F30F900780877050319F90150
:1019200073083D25010824077F393D2579083D25A9
:1019300078088006552CFF30A200FF30A000000080
:101940000000000000000000000000000000000097
:101950000000000000000000000000000000000087
:101960000000000000000000000000000000A00BCC
:101970009F2CA20B9D2C08000D08F5000C08F6000A
:101980000F08F7000D087502031D08000C08760209
:10199000031D08000F087702031D08008E1ED32CBC
:1019A000F509F609F709F8017518F80AF518F80AA3
:1019B0007519F80AF519F80A751AF80AF51AF80AE5
:1019C000751BF80AF51BF80A7618F80A0800850155
:1019D0006030840075180800840AF5180800840A2D
:1019E00075190800840AF5190800840A751A080098
:1019F000840AF51A0800840A751B0800840AF51B7E
:101A00000800840A0800BC30870080308600751802
:101A1000272D08308607F518272D083086077519F9
:101A2000272D08308607F519272D08308607751AE7
:101A3000272D08308607F51A272D08308607751BD5
:101A4000272D08308607F51B272D083086077818C4
:101A50000800860AF8180800860A78190800860A1D
:101A6000F8190800860A781A0800860AF81A080089
:101A7000860A781B0800860A080000000000111E74
:0A1A80003F2D23009A0088010800A2
:061A8A0000000000000056
:101A90000000000000000000000000000000000046
:101AA0000000000000000000000000000000000036
:101AB0000000000000000000000000000000000026
:101AC0000000000000000000000000000000000016
:02200000002CB2
:042002000034003472
:022006000000D8
:082008008801911A0A280B1946
:102010003728090023001908FE002000FF1D13289F
:10202000210091120900FE1F26287E09F8390319A4
:102030000900F0307E05903C03192028FC010900BE
:102040000230FC007E08F300FF100900FF1C2C2862
:10205000FF10FC18302809007E08F100FF14090069
:10206000FE08031909007108A400FF1509000B11EF
:0E207000A30B09001F30A30004308E060900E8
:02207E00000060
:102080000000000000000000000000000000000050
:102090000000000000000000000000000000000040
:1020A0000000000000000000000000000000000030
:1020B0000000000000000000000000000000000020
:10280000EB257808A6000C308E001F30A300E030C6
:102810008B008325FF1D0A2C2100911288018B1348
:1028200004308E000F30730523009518152C93008B
:10283000033091009513151555309600AA30960077
:1028400095148801240823009518242C9300043043
:1028500091009513151555309600AA3096009514E1
:1028600023009518312C8801D001D101D201D30168
:10287000D401D501D601D701D801E001E101E2017F
:10288000E301E401E501E601E701E801840121300B
:1028900085008001850A22308000850A8001840F2E
:1028A000472C2030850080308400FF308000840F6A
:1028B000552CA001A1010830A200A00B642CA10B93
:1028C000642CA20B642C6E2C3C25F80B5D2C672528
:1028D000001410308407770880005D2C0C308E00C7
:1028E0001F30A3008B1786018C1ED92C3C25F80BBA
:1028F000742C6725001C742C1030840777080006A0
:102900000319742CF8002130870075088100870AAC
:1029100076080139223E8100870A7808810020303C
:102920008500803084007518B32C08308407F518B2
:10293000B32C083084077519B32C08308407F519B7
:10294000B32C08308407751AB32C08308407F51AA5
:10295000B32C08308407751BB32C08308407F51B93
:10296000B32C083084077818C82C840AF818C82CAF
:10297000840A7819C82C840AF819C82C840A781A91
:10298000C82C840AF81AC82C840A781BC82C840A1C
:1029900006088000860A7F3086058B130000000041
:1029A00004308E00172508308E001F30A3008B17CF
:1029B000742C8B1304308E002030F900F8013C3069
:1029C000FB00FA018B252030F8070318F90AFA07F3
:1029D0000318FB0A7B1FE22C23009518ED2C060838
:1029E0007F399300053091009513151555309600E9
:1029F000AA309600951423009518FC2C8801260A0D
:102A00007F3923009300063091009513151555303A
:102A10009600AA3096009514230095180D2D880174
:102A2000EB25172517250C308E000000152D0430DE
:102A3000A200FF30A100FF30A00000000000000055
:102A40000000000000000000000000000000000086
:102A50000000000000000000000000000000000076
:102A600000000000000000000000A00B1D2DA10BC5
:102A70001B2DA20B192D08000D08F5000C08F600FF
:102A80000F08F7000D087502031D08000C087602F8
:102A9000031D08000F087702031D08008E1E532D2A
:102AA000F509F609F709F8017518F80AF518F80A92
:102AB0007519F80AF519F80A751AF80AF51AF80AD4
:102AC000751BF80AF51BF80A7618F80A0800850144
:102AD0005030840075180800840AF5180800840A2C
:102AE00075190800840AF5190800840A751A080087
:102AF000840AF51A0800840A751B0800840AF51B6D
:102B00000800840A080023001908190823001D1270
:102B10001D168801080079088500780884002300C4
:102B20007B0892007A0891009517151515165530F7
:102B30009600AA3096009514000000001512151199
:102B40007B0892007A08910015152030F5001200DC
:102B50009300940195161108073A07390319951245
:102B600055309600AA309600951400000000910A96
:102B7000F50BA72D15118801080023007A08920093
:102B80007908910095171515151655309600AA303D
:102B90009600951400000000151215117A08920095
:102BA0007908910015152030F500760893009401FE
:102BB00095161108073A07390319951255309600F2
:102BC000AA309600951400000000910AF50BD52D4F
:102BD000151188010800230095139101151413089D
:102BE000F5000330910015141308F600910A15142E
:102BF0001308F700910A15141308F900910A151427
:102C00001308F8008801F03020260030202601301B
:102C100020265D302026073020260030202675082B
:102C2000202601308E1E03012026780820267608F3
:102C300020267708202679082026F730202608004D
:102C400000000000111E222E23009A0088010800B7
:102C5000FF30F6003030FA00F901BD252030F907C9
:102C60000318FA0AFA1D2D2EF5013D30FA00F9017C
:102C7000BD252030F9070318FA0A7A1F382E2300E1
:102C80009518402E9301033091009513151555307A
:102C90009600AA3096009514230095184D2E910A9F
:102CA0009513151555309600AA30960095142300FB
:102CB0009518582E910A9513151555309600AA307F
:0E2CC0009600951423009518632E88010800D5
:022CCE00000004
:102CD00000000000000000000000000000000000F4
:102CE00000000000000000000000000000000000E4
:102CF00000000000000000000000000000000000D4
:102D000000000000000000000000000000000000C3
:1030000000380138023803380438053806380738E4
:10301000083809380A380B380C380D380E380F3894
:103020001038113812381338143815381638173844
:10303000183819381A381B381C381D381E381F38F4
:1030400020382138223823382438253826382738A4
:10305000283829382A382B382C382D382E382F3854
:103060003038313832383338343835383638373804
:10307000383839383A383B383C383D383E383F38B4
:103080004038413842384338443845384638473864
:10309000483849384A384B384C384D384E384F3814
:1030A00050385138523853385438553856385738C4
:1030B000583859385A385B385C385D385E385F3874
:1030C0006038613862386338643865386638673824
:1030D000683869386A386B386C386D386E386F38D4
:1030E0007038713872387338743875387638773884
:1030F000783879387A387B387C387D387E387F3834
:1031000080388138823883388438853886388738E3
:10311000883889388A388B388C388D388E388F3893
:103120009038913892389338943895389638973843
:10313000983899389A389B389C389D389E389F38F3
:10314000A038A138A238A338A438A538A638A738A3
:10315000A838A938AA38AB38AC38AD38AE38AF3853
:10316000B038B138B238B338B438B538B638B73803
:10317000B838B938BA38BB38BC38BD38BE38BF38B3
:10318000C038C138C238C338C438C538C638C73863
:10319000C838C938CA38CB38CC38CD38CE38CF3813
:1031A000D038D138D238D338D438D538D638D738C3
:1031B000D838D938DA38DB38DC38DD38DE38DF3873
:1031C000E038E138E238E338E438E538E638E73823
:1031D000E838E938EA38EB38EC38ED38EE38EF38D3
:1031E000F038F138F238F338F438F538F638F73883
:1031F000F838F938FA38FB38FC38FD38FE38FF3833
:1032000000390139023903390439053906390739DA
:10321000083909390A390B390C390D390E390F398A
:10322000103911391239133914391539163917393A
:10323000183919391A391B391C391D391E391F39EA
:10324000203921392239233924392539263927399A
:10325000283929392A392B392C392D392E392F394A
:1032600030393139323933393439353936393739FA
:10327000383939393A393B393C393D393E393F39AA
:10328000403941394239433944394539463947395A
:10329000483949394A394B394C394D394E394F390A
:1032A00050395139523953395439553956395739BA
:1032B000583959395A395B395C395D395E395F396A
:1032C000603961396239633964396539663967391A
:1032D000683969396A396B396C396D396E396F39CA
:1032E000703971397239733974397539763977397A
:1032F000783979397A397B397C397D397E397F392A
:1033000080398139823983398439853986398739D9
:10331000883989398A398B398C398D398E398F3989
:103320009039913992399339943995399639973939
:10333000983999399A399B399C399D399E399F39E9
:10334000A039A139A239A339A439A539A639A73999
:10335000A839A939AA39AB39AC39AD39AE39AF3949
:10336000B039B139B239B339B439B539B639B739F9
:10337000B839B939BA39BB39BC39BD39BE39BF39A9
:10338000C039C139C239C339C439C539C639C73959
:10339000C839C939CA39CB39CC39CD39CE39CF3909
:1033A000D039D139D239D339D439D539D639D739B9
:1033B000D839D939DA39DB39DC39DD39DE39DF3969
:1033C000E039E139E239E339E439E539E639E73919
:1033D000E839E939EA39EB39EC39ED39EE39EF39C9
:1033E000F039F139F239F339F439F539F639F73979
:1033F000F839F939FA39FB39FC39FD39FE39FF3929
:10340000003A013A023A033A043A053A063A073AD0
:10341000083A093A0A3A0B3A0C3A0D3A0E3A0F3A80
:10342000103A113A123A133A143A153A163A173A30
:10343000183A193A1A3A1B3A1C3A1D3A1E3A1F3AE0
:10344000203A213A223A233A243A253A263A273A90
:10345000283A293A2A3A2B3A2C3A2D3A2E3A2F3A40
:10346000303A313A323A333A343A353A363A373AF0
:10347000383A393A3A3A3B3A3C3A3D3A3E3A3F3AA0
:10348000403A413A423A433A443A453A463A473A50
:10349000483A493A4A3A4B3A4C3A4D3A4E3A4F3A00
:1034A000503A513A523A533A543A553A563A573AB0
:1034B000583A593A5A3A5B3A5C3A5D3A5E3A5F3A60
:1034C000603A613A623A633A643A653A663A673A10
:1034D000683A693A6A3A6B3A6C3A6D3A6E3A6F3AC0
:1034E000703A713A723A733A743A753A763A773A70
:1034F000783A793A7A3A7B3A7C3A7D3A7E3A7F3A20
:10350000803A813A823A833A843A853A863A873ACF
:10351000883A893A8A3A8B3A8C3A8D3A8E3A8F3A7F
:10352000903A913A923A933A943A953A963A973A2F
:10353000983A993A9A3A9B3A9C3A9D3A9E3A9F3ADF
:10354000A03AA13AA23AA33AA43AA53AA63AA73A8F
:10355000A83AA93AAA3AAB3AAC3AAD3AAE3AAF3A3F
:10356000B03AB13AB23AB33AB43AB53AB63AB73AEF
:10357000B83AB93ABA3ABB3ABC3ABD3ABE3ABF3A9F
:10358000C03AC13AC23AC33AC43AC53AC63AC73A4F
:10359000C83AC93ACA3ACB3ACC3ACD3ACE3ACF3AFF
:1035A000D03AD13AD23AD33AD43AD53AD63AD73AAF
:1035B000D83AD93ADA3ADB3ADC3ADD3ADE3ADF3A5F
:1035C000E03AE13AE23AE33AE43AE53AE63AE73A0F
:1035D000E83AE93AEA3AEB3AEC3AED3AEE3AEF3ABF
:1035E000F03AF13AF23AF33AF43AF53AF63AF73A6F
:1035F000F83AF93AFA3AFB3AFC3AFD3AFE3AFF3A1F
:10360000003B013B023B033B043B053B063B073BC6
:10361000083B093B0A3B0B3B0C3B0D3B0E3B0F3B76
:10362000103B113B123B133B143B153B163B173B26
:10363000183B193B1A3B1B3B1C3B1D3B1E3B1F3BD6
:10364000203B213B223B233B243B253B263B273B86
:10365000283B293B2A3B2B3B2C3B2D3B2E3B2F3B36
:10366000303B313B323B333B343B353B363B373BE6
:10367000383B393B3A3B3B3B3C3B3D3B3E3B3F3B96
:10368000403B413B423B433B443B453B463B473B46
:10369000483B493B4A3B4B3B4C3B4D3B4E3B4F3BF6
:1036A000503B513B523B533B543B553B563B573BA6
:1036B000583B593B5A3B5B3B5C3B5D3B5E3B5F3B56
:1036C000603B613B623B633B643B653B663B673B06
:1036D000683B693B6A3B6B3B6C3B6D3B6E3B6F3BB6
:1036E000703B713B723B733B743B753B763B773B66
:1036F000783B793B7A3B7B3B7C3B7D3B7E3B7F3B16
:10370000803B813B823B833B843B853B863B873BC5
:10371000883B893B8A3B8B3B8C3B8D3B8E3B8F3B75
:10372000903B913B923B933B943B953B963B973B25
:10373000983B993B9A3B9B3B9C3B9D3B9E3B9F3BD5
:10374000A03BA13BA23BA33BA43BA53BA63BA73B85
:10375000A83BA93BAA3BAB3BAC3BAD3BAE3BAF3B35
:10376000B03BB13BB23BB33BB43BB53BB63BB73BE5
:10377000B83BB93BBA3BBB3BBC3BBD3BBE3BBF3B95
:10378000C03BC13BC23BC33BC43BC53BC63BC73B45
:10379000C83BC93BCA3BCB3BCC3BCD3BCE3BCF3BF5
:1037A000D03BD13BD23BD33BD43BD53BD63BD73BA5
:1037B000D83BD93BDA3BDB3BDC3BDD3BDE3BDF3B55
:1037C000E03BE13BE23BE33BE43BE53BE63BE73B05
:1037D000E83BE93BEA3BEB3BEC3BED3BEE3BEF3BB5
:1037E000F03BF13BF23BF33BF43BF53BF63BF73B65
:1037F000F83BF93BFA3BFB3BFC3BFD3BFE3BFF3B15
:10380000003C013C023C033C043C053C063C073CBC
:10381000083C093C0A3C0B3C0C3C0D3C0E3C0F3C6C
:10382000103C113C123C133C143C153C163C173C1C
:10383000183C193C1A3C1B3C1C3C1D3C1E3C1F3CCC
:10384000203C213C223C233C243C253C263C273C7C
:10385000283C293C2A3C2B3C2C3C2D3C2E3C2F3C2C
:10386000303C313C323C333C343C353C363C373CDC
:10387000383C393C3A3C3B3C3C3C3D3C3E3C3F3C8C
:10388000403C413C423C433C443C453C463C473C3C
:10389000483C493C4A3C4B3C4C3C4D3C4E3C4F3CEC
:1038A000503C513C523C533C543C553C563C573C9C
:1038B000583C593C5A3C5B3C5C3C5D3C5E3C5F3C4C
:1038C000603C613C623C633C643C653C663C673CFC
:1038D000683C693C6A3C6B3C6C3C6D3C6E3C6F3CAC
:1038E000703C713C723C733C743C753C763C773C5C
:1038F000783C793C7A3C7B3C7C3C7D3C7E3C7F3C0C
:10390000803C813C823C833C843C853C863C873CBB
:10391000883C893C8A3C8B3C8C3C8D3C8E3C8F3C6B
:10392000903C913C923C933C943C953C963C973C1B
:10393000983C993C9A3C9B3C9C3C9D3C9E3C9F3CCB
:10394000A03CA13CA23CA33CA43CA53CA63CA73C7B
:10395000A83CA93CAA3CAB3CAC3CAD3CAE3CAF3C2B
:10396000B03CB13CB23CB33CB43CB53CB63CB73CDB
:10397000B83CB93CBA3CBB3CBC3CBD3CBE3CBF3C8B
:10398000C03CC13CC23CC33CC43CC53CC63CC73C3B
:10399000C83CC93CCA3CCB3CCC3CCD3CCE3CCF3CEB
:1039A000D03CD13CD23CD33CD43CD53CD63CD73C9B
:1039B000D83CD93CDA3CDB3CDC3CDD3CDE3CDF3C4B
:1039C000E03CE13CE23CE33CE43CE53CE63CE73CFB
:1039D000E83CE93CEA3CEB3CEC3CED3CEE3CEF3CAB
:1039E000F03CF13CF23CF33CF43CF53CF63CF73C5B
:1039F000F83CF93CFA3CFB3CFC3CFD3CFE3CFF3C0B
:103A0000003D013D023D033D043D053D063D073DB2
:103A1000083D093D0A3D0B3D0C3D0D3D0E3D0F3D62
:103A2000103D113D123D133D143D153D163D173D12
:103A3000183D193D1A3D1B3D1C3D1D3D1E3D1F3DC2
:103A4000203D213D223D233D243D253D263D273D72
:103A5000283D293D2A3D2B3D2C3D2D3D2E3D2F3D22
:103A6000303D313D323D333D343D353D363D373DD2
:103A7000383D393D3A3D3B3D3C3D3D3D3E3D3F3D82
:103A8000403D413D423D433D443D453D463D473D32
:103A9000483D493D4A3D4B3D4C3D4D3D4E3D4F3DE2
:103AA000503D513D523D533D543D553D563D573D92
:103AB000583D593D5A3D5B3D5C3D5D3D5E3D5F3D42
:103AC000603D613D623D633D643D653D663D673DF2
:103AD000683D693D6A3D6B3D6C3D6D3D6E3D6F3DA2
:103AE000703D713D723D733D743D753D763D773D52
:103AF000783D793D7A3D7B3D7C3D7D3D7E3D7F3D02
:103B0000803D813D823D833D843D853D863D873DB1
:103B1000883D893D8A3D8B3D8C3D8D3D8E3D8F3D61
:103B2000903D913D923D933D943D953D963D973D11
:103B3000983D993D9A3D9B3D9C3D9D3D9E3D9F3DC1
:103B4000A03DA13DA23DA33DA43DA53DA63DA73D71
:103B5000A83DA93DAA3DAB3DAC3DAD3DAE3DAF3D21
:103B6000B03DB13DB23DB33DB43DB53DB63DB73DD1
:103B7000B83DB93DBA3DBB3DBC3DBD3DBE3DBF3D81
:103B8000C03DC13DC23DC33DC43DC53DC63DC73D31
:103B9000C83DC93DCA3DCB3DCC3DCD3DCE3DCF3DE1
:103BA000D03DD13DD23DD33DD43DD53DD63DD73D91
:103BB000D83DD93DDA3DDB3DDC3DDD3DDE3DDF3D41
:103BC000E03DE13DE23DE33DE43DE53DE63DE73DF1
:103BD000E83DE93DEA3DEB3DEC3DED3DEE3DEF3DA1
:103BE000F03DF13DF23DF33DF43DF53DF63DF73D51
:103BF000F83DF93DFA3DFB3DFC3DFD3DFE3DFF3D01
:103C0000003E013E023E033E043E053E063E073EA8
:103C1000083E093E0A3E0B3E0C3E0D3E0E3E0F3E58
:103C2000103E113E123E133E143E153E163E173E08
:103C3000183E193E1A3E1B3E1C3E1D3E1E3E1F3EB8
:103C4000203E213E223E233E243E253E263E273E68
:103C5000283E293E2A3E2B3E2C3E2D3E2E3E2F3E18
:103C6000303E313E323E333E343E353E363E373EC8
:103C7000383E393E3A3E3B3E3C3E3D3E3E3E3F3E78
:103C8000403E413E423E433E443E453E463E473E28
:103C9000483E493E4A3E4B3E4C3E4D3E4E3E4F3ED8
:103CA000503E513E523E533E543E553E563E573E88
:103CB000583E593E5A3E5B3E5C3E5D3E5E3E5F3E38
:103CC000603E613E623E633E643E653E663E673EE8
:103CD000683E693E6A3E6B3E6C3E6D3E6E3E6F3E98
:103CE000703E713E723E733E743E753E763E773E48
:103CF000783E793E7A3E7B3E7C3E7D3E7E3E7F3EF8
:103D0000803E813E823E833E843E853E863E873EA7
:103D1000883E893E8A3E8B3E8C3E8D3E8E3E8F3E57
:103D2000903E913E923E933E943E953E963E973E07
:103D3000983E993E9A3E9B3E9C3E9D3E9E3E9F3EB7
:103D4000A03EA13EA23EA33EA43EA53EA63EA73E67
:103D5000A83EA93EAA3EAB3EAC3EAD3EAE3EAF3E17
:103D6000B03EB13EB23EB33EB43EB53EB63EB73EC7
:103D7000B83EB93EBA3EBB3EBC3EBD3EBE3EBF3E77
:103D8000C03EC13EC23EC33EC43EC53EC63EC73E27
:103D9000C83EC93ECA3ECB3ECC3ECD3ECE3ECF3ED7
:103DA000D03ED13ED23ED33ED43ED53ED63ED73E87
:103DB000D83ED93EDA3EDB3EDC3EDD3EDE3EDF3E37
:103DC000E03EE13EE23EE33EE43EE53EE63EE73EE7
:103DD000E83EE93EEA3EEB3EEC3EED3EEE3EEF3E97
:103DE000F03EF13EF23EF33EF43EF53EF63EF73E47
:103DF000F83EF93EFA3EFB3EFC3EFD3EFE3EFF3EF7
:103E0000003F013F023F033F043F053F063F073F9E
:103E1000083F093F0A3F0B3F0C3F0D3F0E3F0F3F4E
:103E2000103F113F123F133F143F153F163F173FFE
:103E3000183F193F1A3F1B3F1C3F1D3F1E3F1F3FAE
:103E4000203F213F223F233F243F253F263F273F5E
:103E5000283F293F2A3F2B3F2C3F2D3F2E3F2F3F0E
:103E6000303F313F323F333F343F353F363F373FBE
:103E7000383F393F3A3F3B3F3C3F3D3F3E3F3F3F6E
:103E8000403F413F423F433F443F453F463F473F1E
:103E9000483F493F4A3F4B3F4C3F4D3F4E3F4F3FCE
:103EA000503F513F523F533F543F553F563F573F7E
:103EB000583F593F5A3F5B3F5C3F5D3F5E3F5F3F2E
:103EC000603F613F623F633F643F653F663F673FDE
:103ED000683F693F6A3F6B3F6C3F6D3F6E3F6F3F8E
:103EE000703F713F723F733F743F753F763F773F3E
:103EF000783F793F7A3F7B3F7C3F7D3F7E3F7F3FEE
:103F0000803F813F823F833F843F853F863F873F9D
:103F1000883F893F8A3F8B3F8C3F8D3F8E3F8F3F4D
:103F2000903F913F923F933F943F953F963F973FFD
:103F3000983F993F9A3F9B3F9C3F9D3F9E3F9F3FAD
:103F4000A03FA13FA23FA33FA43FA53FA63FA73F5D
:103F5000A83FA93FAA3FAB3FAC3FAD3FAE3FAF3F0D
:103F6000B03FB13FB23FB33FB43FB53FB63FB73FBD
:103F7000B83FB93FBA3FBB3FBC3FBD3FBE3FBF3F6D
:103F8000C03FC13FC23FC33FC43FC53FC63FC73F1D
:103F9000C83FC93FCA3FCB3FCC3FCD3FCE3FCF3FCD
:103FA000D03FD13FD23FD33FD43FD53FD63FD73F7D
:103FB000D83FD93FDA3FDB3FDC3FDD3FDE3FDF3F2D
:103FC000E03FE13FE23FE33FE43FE53FE63FE73FDD
:103FD000E83FE93FEA3FEB3FEC3FED3FEE3FEF3F8D
:103FE000F03FF13FF23FF33FF43FF53FF63FF73F3D
:103FF000F83FF93FFA3FFB3FFC3FFD3FFE3FFF3FED
:10780000FF00FF00FF00FF00FF00FF00FF00FF0080
:10781000FF00FF00FF00FF00FF00FF00FF00FF0070
:10782000FF00FF00FF00FF00FF00FF00FF00FF0060
:10783000FF00FF00FF00FF00FF00FF00FF00FF0050
:020000040001F9
:02000E00443E6E
:02001000EF1FE0
:10E000000000310087000000000000000000000058
:10E010000000000000000000000000000000000000
:10E0200000000000000000000000000000000000F0
:10E0300000000000000000000000000000000000E0
:10E0400000000000000000000000000000000000D0
:10E0500000000000000000000000000000000000C0
:10E0600000000000000000000000000000000000B0
:10E0700000000000000000000000000000000000A0
:10E080000000000000000000000000000000000090
:10E090000000000000000000000000000000000080
:10E0A0000000000000000000000000000000000070
:10E0B0000000000000000000000000000000000060
:10E0C0000000000000000000000000000000000050
:10E0D0000000000000000000000000000000000040
:10E0E0000000000000000000000000000000000030
:10E0F0000000000000000000000000000000000020
:10E10000000000000000000000000000000000000F
:10E1100000000000000000000000000000000000FF
:10E1200000000000000000000000000000000000EF
:10E1300000000000000000000000000000000000DF
:10E1400000000000000000000000000000000000CF
:10E1500000000000000000000000000000000000BF
:10E1600000000000000000000000000000000000AF
:10E17000000000000000000000000000000000009F
:10E18000000000000000000000000000000000008F
:10E19000000000000000000000000000000000007F
:10E1A000000000000000000000000000000000006F
:10E1B000000000000000000000000000000000005F
:10E1C000000000000000000000000000000000004F
:10E1D000000000000000000000000000000000003F
:10E1E000000000000000000000000000000000002F
:0EE1F000000000000000000000000000000021
:00000001FF
